:020000040800F2
:1000000000C00020A91E0008F1060008F306000841
:10001000F5060008F7060008F906000800000000D1
:10002000000000000000000000000000FB060008C7
:10003000FD06000800000000FF0600080107000898
:10004000F11E0008F11E0008F11E0008F11E000854
:10005000F11E0008F11E0008F11E0008F11E000844
:10006000F11E0008F11E0008F11E0008F11E000834
:10007000F11E0008F11E0008F11E0008F11E000824
:10008000F11E0008F11E0008F11E0008F11E000814
:10009000F11E0008F11E0008F11E0008F11E000804
:1000A000F11E0008F11E0008F11E0008F11E0008F4
:1000B000F11E0008F11E0008F11E0008F11E0008E4
:1000C000F11E0008F11E0008F11E000809070008D3
:1000D000F11E000819070008F11E0008F11E0008B3
:1000E000F11E0008F11E0008F11E0008F11E0008B4
:1000F000F11E0008F11E0008F11E0008F11E0008A4
:10010000F11E0008F11E0008F11E0008F11E000893
:10011000F11E0008F11E0008F11E0008F11E000883
:10012000F11E0008F11E0008F11E0008F11E000873
:1001300000000000000000000000000000000000BF
:1001400000000000000000000000000000000000AF
:10015000000000000000000000000000000000009F
:10016000000000000000000000000000000000008F
:10017000000000000000000000000000000000007F
:10018000000000000000000000000000000000006F
:10019000000000000000000000000000000000005F
:1001A000000000000000000000000000000000004F
:1001B000000000000000000000000000000000003F
:1001C000000000000000000000000000000000002F
:1001D000000000000000000000000000000000001F
:0401E0005FF8E0F1F3
:1001E40010B5054C237833B9044B13B10448AFF36D
:1001F40000800123237010BD3C0400200000000097
:100204001C20000808B5034B1BB103490348AFF396
:10021400008008BD00000000400400201C200008ED
:100224002DE9F04188B02D4B9A6942F010029A6191
:100234009A6902F010020192019A9A6942F004024A
:100244009A619A6902F004020292029A9A6942F04F
:1002540008029A619B6903F008030393039B0F232D
:100264000493012405940025069507941C4E04A9C3
:10027400304600F077FD0494059406950794DFF862
:10028400688004A9404600F06DFD4FF2B833049332
:10029400059406950794134F04A9384600F062FDAF
:1002A4004FF48063049305950223069304A9304612
:1002B40000F058FD22460821304600F06FFE224629
:1002C4002146404600F06AFE2A464FF47041384603
:1002D40000F064FE08B0BDE8F08100BF00100240E9
:1002E40000100140000C01400008014008B502461E
:1002F4000221024800F052FE08BD00BF0010014078
:1003040008B502460421024800F048FE08BD00BFBB
:100314000010014008B502464FF40071014800F096
:100324003DFE08BD000C014008B502464FF4807143
:10033400014800F033FE08BD000C014008B5024638
:100344008021024800F02AFE08BD00BF000C0140D5
:1003540008B502462021024800F020FE08BD00BF77
:10036400000C014008B502461021024800F016FEB8
:1003740008BD00BF000C014008B502460821024830
:1003840000F00CFE08BD00BF000C014008B50020C1
:10039400FFF7C0FF0020FFF7C7FF0020FFF7CEFFE5
:1003A4000020FFF7D5FF0020FFF7DCFF0020FFF758
:1003B400E3FF0020FFF79AFF0120FFF7A1FF08BD2C
:1003C40010B50446042000F009FC014B1C6010BD6C
:1003D4005804002030B40C4B5D680C4A146800FBD0
:1003E40004F49B68002104E0E81A02441144A14289
:1003F40008D21A46044B9B689A42FBD0F4D9D21A0D
:100404001144F4E730BC704710E000E058040020C9
:1004140038B505460024A54205D94FF47A70FFF794
:10042400D9FF0134F7E738BD08B500F049FB00F007
:1004340087F900F011FA00F02FFAFFF7F1FE4820D7
:10044400FFF7BEFF4FF44870FFF7E2FFFFF79EFF90
:1004540000F06AFA124A10804EF61772904203D0E6
:10046400104B01221A7014E000F0F2FA0D4B002236
:100474001A7001210C4800F097FD0AE04FF4FA705D
:10048400FFF7C6FF0121084800F08EFD074B00224C
:100494001A60064B1A68064B9A42FAD9EEE700BF77
:1004A400040000205C04002000080140B80400207F
:1004B4001CFC080000B587B08DF80F004FF47A7368
:1004C400009301230DF117020DF10F01034801F010
:1004D4003DF99DF8170007B05DF804FB60040020A7
:1004E40010B51648164B03604FF482734360002323
:1004F4008360C36002220261012242614FF40072F0
:1005040082610822C2610362436283620723C36279
:1005140001F0DEF870B9094C2268136843F0400317
:100524001360FF20FFF7C6FF2268136823F040031F
:10053400136010BD00F0AEF9EDE700BF60040020C9
:100544000030014082B00E4B9A6942F001029A6178
:100554009A6902F001020092009ADA6942F080522C
:10056400DA61DB6903F080530193019B054A536808
:1005740023F0E06343F00073536002B0704700BFA0
:10058400001002400000014000B587B00023029330
:100594000393049305930268134B9A4202D007B065
:1005A4005DF804FB03F560439A6942F480529A6152
:1005B4009A6902F480520092009A9A6942F0040205
:1005C4009A619B6903F004030193019BE023029366
:1005D40002230393012304930323059302A90348ED
:1005E40000F0C0FBDBE700BF003001400008014021
:1005F40030B589B0002304930593069307930368E9
:10060400354A934204D0354A934233D009B030BDC1
:10061400334B9A6942F480429A619A6902F48042A7
:100624000092009A9A6942F004029A619B6903F06D
:1006340004030193019B4FF4007304930223059375
:1006440003230793274D04A9284600F08BFB4FF49E
:100654008063049300240594069404A9284600F0BA
:1006640081FB22462146252000F060FA252000F077
:1006740091FACBE71A4BDA6942F48022DA61DA693B
:1006840002F480220292029A9A6942F008029A6164
:100694009B6903F008030393039B4FF48063049363
:1006A40002230593032307930F4D04A9284600F062
:1006B40059FB4FF40063049300240594069404A9A1
:1006C400284600F04FFB22462146272000F02EFA50
:1006D400272000F05FFA99E7003801400048004005
:1006E4000010024000080140000C01407047FEE782
:1006F400FEE7FEE7FEE770477047704708B500F075
:10070400F1F908BD08B5024801F03EF908BD00BF83
:100714006004002008B5084801F026FB064801F0F3
:10072400BBFB2028FAD101220449034801F08FFAC7
:100734000028F8D108BD00BF440500204005002072
:1007440000B591B0002309930B930C93019302938A
:10075400039304930593012106914FF48032079289
:1007640008930A9102230D930E924FF4E0130F9312
:1007740006A800F037FC80B90F23019302210291EF
:10078400002303934FF480620492059301A800F0C0
:1007940067FE28B911B05DF804FB00F07BF8EBE7C5
:1007A40000F078F8F6E700000F4B1A6842F00102F7
:1007B4001A6059680D4A0A405A601A6822F0847215
:1007C40022F480321A601A6822F480221A605A686D
:1007D40022F4FE025A604FF41F029A60044B4FF059
:1007E40000629A60704700BF001002400000FFF8EA
:1007F40000ED00E00268134B9A4200D07047124BA0
:100804001B78012BFAD070B5104E114C01223168BF
:10081400204600F0FDF80F4D01223168284600F013
:10082400A3F82A7823789A4203D1336801333360DA
:1008340070BD064B00221A6000F00AF9024B012237
:100844001A70F5E7003801405C040020B804002069
:10085400400500203C05002010B50B4C0B4B2360D9
:100864004FF4165363600023A360E36023610C22FA
:100874006261A361E361204601F0BAF901220449EF
:10088400204601F0E4F910BD440500200038014081
:10089400BC0400207047000010B586B00D4B9A6967
:1008A40042F004029A619B6903F004030193019BE3
:1008B400102302930124039404940323059302A9AF
:1008C400054800F04FFA054B1C60FFF709FE06B01F
:1008D40010BD00BF001002400008014090012142F9
:1008E40010B502280DD003280DD11520074C002384
:1008F4002360FFF7DFFDFF20FFF7DCFD012323600A
:1009040010BD3520F2E70520F0E700BF9001214239
:1009140010B5044C002323600620FFF7CBFD012310
:10092400236010BD9001214238B50E4D00242C6087
:100934009020FFF7BFFD2046FFF7BCFD2046FFF7E0
:10094400B9FD2046FFF7B6FDFF20FFF7B3FD040213
:10095400A4B2FF20FFF7AEFD80B201232B60204339
:1009640038BD00BF90012142F8B506460F46154632
:1009740000240E4B1C600320FFF79CFDC7F30740C7
:10098400FFF798FDC7F30720FFF794FDF8B2FFF7D0
:1009940091FDAC4206D2FF20FFF78CFD30550134A7
:1009A400A4B2F6E7014B01221A60F8BD900121427E
:1009B40008B50120FFF794FF10F0010FF9D108BD2D
:1009C400F8B506460F461546FFF7A2FF00240F4B65
:1009D4001C600220FFF76EFDC7F30740FFF76AFDB6
:1009E400C7F30720FFF766FDF8B2FFF763FDAC42DB
:1009F40005D2305DFFF75EFD0134A4B2F7E7034B87
:100A040001221A60FFF7D4FFF8BD00BF9001214214
:100A1400F8B507460E461446CDB2C5F58075ADB29D
:100A2400954203D3154601E04FF480752A463146BA
:100A34003846FFF7C5FFAC4208D02F442E44641B50
:100A4400A4B2B4F5807FEFD82546EFE7F8BD0000E7
:100A540010B5FFF75DFFFFF7ABFF054C00232360E4
:100A6400C720FFF727FD01232360FFF7A1FF10BD77
:100A74009001214210B504460E4B18784FF47A7356
:100A8400B3FBF0F30C4A1068B0FBF3F000F090F8FD
:100A940068B90F2C01D901200AE0002221464FF049
:100AA400FF3000F043F8054B1C60002000E00120FB
:100AB40010BD00BF06000020000000200800002038
:100AC40008B5074A136843F010031360032000F0CD
:100AD4001BF80020FFF7CEFFFFF734FD002008BD10
:100AE40000200240034A1168034B1B780B44136037
:100AF400704700BF8405002006000020014B1868E1
:100B0400704700BF84050020074AD36823F4E063DC
:100B14001B041B0C000200F4E060034343F0BF63BA
:100B240043F40033D360704700ED00E030B4174B5A
:100B3400DB68C3F30223C3F10704042C28BF042495
:100B44001D1D062D18D9033B4FF0FF3505FA04F49B
:100B540021EA0401994005FA03F322EA0303194345
:100B640000280BDB0901C9B200F1604000F56140C7
:100B740080F8001330BC70470023E5E700F00F0055
:100B84000901C9B2024B1954F4E700BF00ED00E0BB
:100B940014ED00E0002807DB00F01F0240090123E8
:100BA4009340024A42F82030704700BF00E100E061
:100BB4000138B0F1807F0AD2064B5860064AF02112
:100BC40082F823100020986007221A6070470120E1
:100BD400704700BF10E000E000ED00E0042805D0FD
:100BE400054A136823F0040313607047024A13682C
:100BF40043F004031360704710E000E008B590F878
:100C04002130022B03D004238363012008BD026832
:100C1400136823F00E0313600268136823F00103C2
:100C2400136003684B4A93424ED9783A934224D0D6
:100C34001432934230D0143293422FD01432934260
:100C44002FD0143293422FD0143293422FD0143227
:100C540093422FD002F5627293422ED01432934203
:100C64002DD0143293422CD01432934202D04FF43C
:100C7400803203E04FF4805200E00122364B5A6088
:100C8400012380F82130002380F82030436B002BAF
:100C94005ED098470020B9E71022EFE74FF4807246
:100CA400ECE74FF48052E9E74FF48032E6E74FF483
:100CB4008012E3E74FF08072E0E70122DEE71022C2
:100CC400DCE74FF48072D9E7244A934224D01432EB
:100CD400934225D01432934224D01432934224D028
:100CE4001432934224D01432934224D014329342C7
:100CF40024D002F56272934223D01432934222D05C
:100D04001432934221D01432934202D04FF48032F1
:100D140003E04FF4805200E00122114B5A60AFE728
:100D24001022FAE74FF48072F7E74FF48052F4E7A9
:100D34004FF48032F1E74FF48012EEE74FF0807207
:100D4400EBE70122E9E71022E7E74FF48072E4E7DA
:100D540000205BE7800002400004024008000240DB
:100D640000000240F0B482B000252C46ABE0854F71
:100D7400BB4210D007D9844FBB420CD007F5803753
:100D8400BB4208D013E0A7F58017BB4203D007F598
:100D94007027BB4207D18B68002B60D0012B59D040
:100DA4004261082503E0A7F58017BB42F3D0FF2E6C
:100DB40057D88446FF2E57D8A200DCF800300F27FE
:100DC400974023EA070305FA02F21343CCF80030F4
:100DD4004B6813F0805F75D06C4B9A6942F0010246
:100DE4009A619B6903F001030193019BA208971C7C
:100DF400674B53F827C004F003039F000F23BB4045
:100E04002CEA030C634B984234D003F58063984278
:100E140000F0948003F58063984200F0918003F51C
:100E24008063984200F08E8003F58063984200F05E
:100E34008B8003F5806398421AD006231BE0CD68AB
:100E4400B5E7CD680435B2E7CD680835AFE7CD68BE
:100E54000C35ACE702610825A9E70025A7E70425BE
:100E6400A5E700F1040CA5E7A4F108029200A4E7A9
:100E7400052300E00023BB4043EA0C030232444F45
:100E840047F822304B6813F4803F5FD0424A13681E
:100E9400334313604B6813F4003F5DD03E4A5368FC
:100EA400334353604B6813F4801F5BD03A4A936812
:100EB400334393604B6813F4001F59D0364AD36808
:100EC4001E43D66001340B6833FA04F256D0012273
:100ED400A24003EA020632EA0303F3D14B68122B61
:100EE4003FF645AF122B3FF662AF01A757F823F048
:100EF4009B0D0008430E00084D0E00085F0E00080D
:100F0400B30D0008B30D0008B30D0008B30D0008BD
:100F1400B30D0008B30D0008B30D0008B30D0008AD
:100F2400B30D0008B30D0008B30D0008B30D00089D
:100F3400B30D0008470E0008530E000801239AE77A
:100F4400022398E7032396E7042394E7124A1368DD
:100F540023EA060313609DE70F4A536823EA060356
:100F640053609FE70C4A936823EA06039360A1E762
:100F7400094AD36823EA0606D660A3E702B0F0BCA8
:100F8400704700BF00002210000031100010024022
:100F94000000014000080140000401400AB1016161
:100FA4007047090401617047C3680B4201D0416175
:100FB400704701617047000082B0084B1B68084A03
:100FC400A2FB03235B0A00FB03F3019300BF019B15
:100FD4005A1E0192002BF9D102B070470000002084
:100FE400D34D6210002800F0F18170B582B0044640
:100FF400036813F0010F2CD0AA4B5B6803F00C03B9
:10100400042B1DD0A74B5B6803F00C03082B12D0F4
:101014006368B3F5803F41D0002B55D103F1804381
:1010240003F504331A6822F480321A601A6822F431
:1010340080221A6037E09B4B5B6813F4803FE7D053
:10104400984B1B6813F4003F03D06368002B00F037
:10105400BF81236813F0020F75D0924B5B6813F0C5
:101064000C0F5FD08F4B5B6803F00C03082B54D03C
:101074002369002B00F089808B4B01221A60FFF753
:101084003DFD0546874B1B6813F0020F74D1FFF733
:1010940035FD401B0228F5D903209EE1814A1368DF
:1010A40043F480331360636843B3FFF727FD0546B9
:1010B4007C4B1B6813F4003FCBD1FFF71FFD401B93
:1010C4006428F5D9032088E1B3F5A02F09D0754B26
:1010D4001A6822F480321A601A6822F480221A6094
:1010E400E1E703F18043A3F53C331A6842F480221C
:1010F4001A601A6842F480321A60D4E7FFF7FEFCE3
:101104000546684B1B6813F4003FA2D0FFF7F6FCBA
:10111400401B6428F5D903205FE1624B5B6813F43C
:10112400803FA5D15F4B1B6813F0020F03D02369E6
:10113400012B40F04F815B4A136823F0F803616987
:1011440043EAC1031360236813F0080F32D0A36984
:10115400002B45D0554B01221A60FFF7CFFC054602
:10116400504B5B6A13F0020F21D1FFF7C7FC401B01
:101174000228F5D9032030E14A4A136823F0F80322
:10118400616943EAC1031360DDE7474B00221A603B
:10119400FFF7B4FC0546434B1B6813F0020FD2D093
:1011A400FFF7ACFC401B0228F5D9032015E1012010
:1011B400FFF702FF236813F0040F00F09780394B08
:1011C400DB6913F0805F1DD1364BDA6942F080523F
:1011D400DA61DB6903F080530193019B012512E07E
:1011E400324B00221A60FFF789FC05462D4B5B6ADF
:1011F40013F0020FDED0FFF781FC401B0228F5D963
:101204000320EAE000252A4B1B6813F4807F11D0E9
:10121400E368012B22D0002B38D103F1804303F57E
:1012240004331A6A22F001021A621A6A22F00402D2
:101234001A6218E01E4A136843F480731360FFF7C0
:101244005DFC06461A4B1B6813F4807FE0D1FFF760
:1012540055FC801B6428F5D90320BEE0114A136AAB
:1012640043F001031362E36873B3FFF747FC0646D8
:101274000C4B1B6A13F0020F37D1FFF73FFC801BA6
:1012840041F288339842F3D90320A6E0052B11D00C
:10129400044B1A6A22F001021A621A6A22F004024A
:1012A4001A62E0E700100240000042428004424219
:1012B400007000404D4B1A6A42F004021A621A6A26
:1012C40042F001021A62CEE7FFF718FC0646474BCC
:1012D4001B6A13F0020F08D0FFF710FC801B41F2C9
:1012E40088339842F3D9032077E0E5B9E369002B0A
:1012F40072D03E4A526802F00C02082A56D0022BE1
:1013040017D03B4B00221A60FFF7F8FB0446374B1B
:101314001B6813F0007F47D0FFF7F0FB001B022887
:10132400F5D9032059E0314AD36923F08053D361BE
:10133400DCE72F4B00221A60FFF7E0FB05462B4B3E
:101344001B6813F0007F06D0FFF7D8FB401B022870
:10135400F5D9032041E0236AB3F5803F1AD023492D
:101364004B6823F47413226A606A024313434B608C
:101374001F4B01221A60FFF7C1FB04461B4B1B687D
:1013840013F0007F0ED1FFF7B9FB001B0228F5D93B
:10139400032022E0154A536823F40033A1680B4369
:1013A4005360DCE7002018E0002016E0012B16D083
:1013B4000E4B5B6803F48031226A914211D103F42D
:1013C4007013626A93420ED1002006E00120704738
:1013D400012002E0012000E0002002B070BD0120E5
:1013E400FBE70120F9E70120F7E700BF0010024006
:1013F4006000424286B0164B0FCB0DF1180C0CE97D
:101404000F0040F20123ADF80430124B5B6803F087
:101414000C02082A02D0104806B07047C3F3834276
:10142400624412F8102C13F4803F0CD0094B5B6813
:10143400C3F34043634413F8143C074800FB02F031
:10144400B0FBF3F0E8E7054800FB02F0E4E700BF77
:101454004C2000080010024000127A0000093D00F0
:10146400002800F0A08070B50D460446524B1B685E
:1014740003F007038B420BD24F4A136823F0070390
:101484000B431360136803F007038B4240F08D8015
:10149400236813F0020F17D013F0040F04D0474A47
:1014A400536843F4E0635360236813F0080F04D0D7
:1014B400424A536843F460535360404A536823F0EC
:1014C400F003A1680B435360236813F0010F31D07C
:1014D4006368012B20D0022B25D0384A126812F001
:1014E400020F64D035494A6822F0030213434B606B
:1014F400FFF704FB0646314B5B6803F00C0362689C
:10150400B3EB820F16D0FFF7F9FA801B41F2883350
:101514009842F0D9032045E0284A126812F4003FAB
:10152400E0D101203EE0254A126812F0007FD9D1B3
:10153400012037E0204B1B6803F00703AB420AD9B4
:101544001D4A136823F007032B431360136803F049
:101554000703AB422DD1236813F0040F06D0174ABA
:10156400536823F4E063E1680B435360236813F08A
:10157400080F07D0114A536823F46053216943EAE2
:10158400C1035360FFF736FF0C4B5B68C3F30313CF
:101594000B4AD35CD8400B4B18600B4B1868FFF711
:1015A40069FA002070BD012070470120FAE701208C
:1015B400F8E70120F6E700BF0020024000100240D7
:1015C400342000080000002008000020014B1868A7
:1015D400704700BF0000002008B5FFF7F7FF044B79
:1015E4005B68C3F30223034AD35CD84008BD00BF41
:1015F400001002404420000808B5FFF7E7FF044B41
:101604005B68C3F3C223034AD35CD84008BD00BF60
:1016140000100240442000082DE9F04106468846A7
:1016240017461D463468A46838EA04030CBF012435
:101634000024BC4237D0B5F1FF3FF3D0FFF75EFA88
:10164400069BC01AA84201D2002DEBD13268536820
:1016540023F0E00353607368B3F5827F0BD0B36A61
:10166400B3F5005F14D0012386F85130002386F8C7
:101674005030032018E0B368B3F5004F02D0B3F53F
:10168400806FECD13268136823F040031360E6E7FF
:101694003268136823F4005313603268136843F408
:1016A40000531360DFE70020BDE8F08110B582B07D
:1016B40004460B46009200228021FFF7ADFF08B9D3
:1016C40002B010BD636D43F0200363650320F7E7A8
:1016D400002839D010B504460023836290F85130B5
:1016E400002B2CD0022384F851302268136823F095
:1016F400400313606368A2681343E26813432269DA
:10170400134362691343A26902F400721343E2694A
:101714001343226A1343A16A22680B431360638B49
:10172400226803F0040353602268D36923F400633E
:10173400D36100206065012384F8513010BD80F826
:101744005030FEF721FFCDE7012070472DE9F0432B
:1017540083B01F460A9D90F85030012B00F0108191
:10176400044688469146012380F85030FFF7C6F9B5
:10177400064694F85130DBB26268012B0AD0B2F508
:10178400827F40F0E380A268002A40F0E980042BC5
:1017940040F0E880B8F1000F00F0E680B9F1000FE6
:1017A40000F0E480002F00F0E38094F85130DBB2C5
:1017B400042B02D0052384F8513000236365C4F858
:1017C4003890E787A787C4F83080E786A786236424
:1017D400636423681A6812F0400F03D11A6842F058
:1017E40040021A60E368B3F5006F11D063680BB16F
:1017F400012F0BD1226B236812781A73236B0133E8
:101804002363E38E9BB2013B9BB2E38601276BE02B
:1018140063680BB1012F0BD1226B23681288DA6045
:10182400236B02332363E38E9BB2013B9BB2E386BB
:1018340001271CE023689A6812F0010F0ED0E28F92
:1018440092B25AB1DA68A36B1A80A36B0233A36312
:10185400E38F9BB2013B9BB2E3870127FFF74EF96D
:10186400801BA84203D3B5F1FF3F40F08380E38E91
:101874009BB21BB9E38F9BB2002B53D023689A68A9
:1018840012F0020FD6D0E28E92B2002AD2D0002FEC
:10189400D0D0226B1288DA60236B02332363E38E89
:1018A4009BB2013B9BB2E3860027C3E723689A6897
:1018B40012F0010F0ED0E28F92B25AB1DA68A36B24
:1018C4001A70A36B0133A363E38F9BB2013B9BB2FA
:1018D400E3870127FFF712F9831BAB4202D3B5F16B
:1018E400FF3F49D1002D49D0E38E9BB213B9E38F5A
:1018F4009BB2BBB123689A6812F0020FD6D0E28E75
:1019040092B2002AD2D0002FD0D0226B12781A7350
:10191400236B01332363E38E9BB2013B9BB2E386CB
:101924000027C3E7324629462046FFF7BFFE48B9E1
:10193400A36863B901932368DA6801929B680193F1
:10194400019B04E020236365012000E002200123C1
:1019540084F85130002384F8503003B0BDE8F0839C
:101964000220F4E70220F2E70120F0E70120EEE78D
:101974000120ECE70320EAE70320E8E70320E6E799
:101984000220EAE77047000030B585B004460268DB
:1019940051689368C3F3801013F0400F05D113F01E
:1019A400010F02D011F0400F5AD113F0020F02D0F0
:1019B40011F0800F58D1C3F3401513F0200F01D15B
:1019C400002854D011F0200F51D078B194F8513040
:1019D400DBB2032B4DD0636D43F004036365002336
:1019E4000193D368019393680193019B65B1636D7F
:1019F40043F001036365002303939368039313681F
:101A040023F040031360039B636D002B2FD02268E7
:101A1400536823F0E0035360012384F8513011F03C
:101A2400030F2ED02268536823F003035360E36C42
:101A34004BB1164A5A63E06CFFF7E0F818B1636DD6
:101A440043F040036365A36C8BB1104A5A63A06CE6
:101A5400FFF7D4F858B1636D43F04003636506E0C3
:101A6400236C2046984702E0636C2046984705B0F3
:101A740030BD00230293D368029393680293029BC0
:101A8400F5E72046FFF77EFFF1E700BF951A00084F
:101A940008B5406A0023C387C386FFF773FF08BDF8
:101AA4000268D36823F49073D3600268536923F007
:101AB40001035361202380F83A30704790F839309D
:101AC400DBB2212B01D0022070478368B3F5805F1D
:101AD40017D0036A5A1C02621A7803685A60C38CCE
:101AE4009BB2013B9BB2C3844BB90268D36823F019
:101AF4008003D3600268D36843F04003D3600020BE
:101B04007047036A1B880268C3F3080353600369C0
:101B14001BB9036A02330362E1E7036A0133036218
:101B2400DDE7000038B504460268136923F4405326
:101B3400C1680B43136183680269134342691A4302
:101B44000168CB6823F4B05323F00C031343CB6038
:101B54000268536923F4407381690B43536102683B
:101B6400214B9A421FD0FFF737FD00EB800000EBBA
:101B7400800063689B00B0FBF3F01C4DA5FB0032B2
:101B84005109642303FB11031B013233A5FB032317
:101B94005B0903F0F00202EB011203F00F0321686A
:101BA40013448B6038BDFFF727FD00EB800000EB8A
:101BB400800063689B00B0FBF3F00C4DA5FB003282
:101BC4005109642303FB11031B013233A5FB0323D7
:101BD4005B0903F0F00202EB011203F00F0321682A
:101BE40013448B60DEE700BF003801401F85EB51D2
:101BF40058B310B5044690F839300BB3242384F855
:101C040039302268D36823F40053D3602046FFF7A9
:101C140089FF2268136923F490431361226853698E
:101C240023F02A0353612268D36843F40053D3603A
:101C34000020E063202384F8393084F83A3010BD62
:101C440080F83830FEF7D4FCD8E70120704790F8CC
:101C54003A30DBB2202B20D109B312B390F83830DC
:101C6400012B20D081628285C2850023C363222296
:101C740080F83A2080F838300168CA6842F48072EB
:101C8400CA6001684A6942F001024A610168CA688F
:101C940042F02002CA6018467047022070470120B3
:101CA40070470120704702207047704708B50168EB
:101CB400CA6822F04002CA60202280F83920FFF767
:101CC400F4FF002008BD08B590F83A30DBB2222BAF
:101CD40046D18368B3F5805F0FD003690BBB0368FB
:101CE4005A68836A591C81621A70C38D9BB2013B86
:101CF4009BB2C385F3B1002008BD826A036943B96E
:101D040003685B68C3F308031380836A0233836246
:101D1400EBE703685B68DBB21380836A0133836299
:101D2400E3E703685B68826A511C816203F07F0306
:101D34001370DAE70268D36823F02003D3600268E3
:101D4400D36823F48073D3600268536923F00103DA
:101D54005361202380F83A30FEF74CFD0020CBE796
:101D64000220C9E77047000010B5044602681368F2
:101D7400D168526913F00F0005D113F0200F02D07F
:101D840011F0200F13D128B112F0010213D111F474
:101D9400907F10D113F0800F02D011F0800F69D121
:101DA40013F0400F02D011F0400F67D110BD204650
:101DB400FFF789FFFAE713F0010F06D011F4807FD3
:101DC40003D0E06B40F00100E06313F0040F04D093
:101DD4001AB1E06B40F00200E06313F0020F04D08C
:101DE4001AB1E06B40F00400E06313F0080F04D074
:101DF4001AB1E26B42F00802E263E26B002AD5D02A
:101E040013F0200F02D011F0200F21D123685B6959
:101E140003F04003E26B12F0080F00D123B3204615
:101E2400FFF73EFE23685A6912F0400F18D05A6932
:101E340022F040025A61636B73B1124A5A63606BB9
:101E4400FEF7DCFE0028B1D0606B436B9847ADE72A
:101E54002046FFF738FFD9E72046FFF783FFA5E7C1
:101E64002046FFF77FFFA1E72046FFF77BFF002313
:101E7400E3639BE72046FFF721FE97E72046FFF741
:101E840015FF93E78D1E000808B5406A0023C3853B
:101E9400C384FFF767FF08BD90F8393090F83A0023
:101EA40018437047002103E00B4B5B584350043147
:101EB4000A480B4B42189A42F6D30A4A02E000231E
:101EC40042F8043B084B9A42F9D3FEF76DFC00F04C
:101ED4000FF8FEF7A9FA70477020000800000020F0
:101EE4003C0400203C040020AC050020FEE7000078
:101EF40070B50D4E0D4D761BB61006D0002455F866
:101F0400043B01349847A642F9D1094E094D00F02B
:101F140083F8761BB61006D0002455F8043B013430
:101F24009847A642F9D170BD6420000864200008D7
:101F34006C20000864200008024B13B1024800F032
:101F440005B87047000000005D1F0008002301462B
:101F54001A46184600F01AB838B5084B084D5B1BF2
:101F64009C1007D0043B1D44013C55F804399847A4
:101F7400002CF9D1BDE8384000F054B870200008B6
:101F84006C200008704700BF704700BF2DE9F04780
:101F9400DFF880A00646DAF8000098460F4691461E
:101FA400FFF7F0FF1A4B1B68D3F8484124B3656868
:101FB4001F2D26DC5EB96B1C0235DAF80000636065
:101FC40044F82570FFF7E0FF0020BDE8F087012307
:101FD40004EB8501C1F88890D4F88821AB401A43FA
:101FE400022EC4F88821C1F80881E4D1D4F88C21E8
:101FF4001343C4F88C31DEE703F5A674C3F84841F3
:10200400D5E7DAF80000FFF7BFFF4FF0FF30DCE759
:102014006020000838040020F8B500BFF8BC08BCF4
:102024009E467047F8B500BFF8BC08BC9E46704792
:102034000000000000000000010203040607080974
:102044000000000001020304020304050607080956
:102054000A0B0C0D0E0F10100000000010000020E1
:082064003D1F000809020008FD
:04206C00E501000882
:102070000024F40017EF0100100000000000000031
:1020800000000000FC02002064030020CC030020BC
:102090000000000000000000000000000000000040
:1020A0000000000000000000000000000000000030
:1020B0000000000000000000000000000000000020
:1020C0000000000000000000000000000000000010
:1020D0000000000000000000000000000000000000
:1020E00000000000000000000000000000000000F0
:1020F00000000000000000000000000000000000E0
:1021000000000000000000000000000000000000CF
:1021100000000000000000000000000000000000BF
:1021200000000000000000000100000000000000AE
:102130000E33CDAB34126DE6ECDE05000B00000073
:10214000000000000000000000000000000000008F
:10215000000000000000000000000000000000007F
:10216000000000000000000000000000000000006F
:10217000000000000000000000000000000000005F
:0C24A00000000000000000008805002083
:0400000508001EA928
:00000001FF
